:100000000C9480000C94A8000C94A8000C94A800F8
:100010000C94A8000C94A8000C94A8000C94A800C0
:100020000C94A8000C94A8000C94A8000C94A800B0
:100030000C94A8000C94A8000C94A8000C94A800A0
:100040000C9468040C94A8000C94B0030C948A03DC
:100050000C94A8000C94A8000C94A8000C94A80080
:100060000C94F2040C94A80075088A088A08890880
:100070008A0867088A088A088A0869088A088A0834
:100080007C08870885088A088A088A088308313727
:100090003A30363A323500536570203238203230EB
:1000A0003231001F1C1F1E1F1E1F1F1E1F1E00009F
:1000B0000008000201000003040700000000000027
:1000C000000000000000250028002B0000000000B8
:1000D000240027002A000404040404040404020287
:1000E00002020202030303030303010204081020B7
:1000F0004080010204081020010204081020C80BEF
:1001000011241FBECFEFD8E0DEBFCDBF23E0A4ECAB
:10011000B1E001C01D92A233B207E1F711E0A0E007
:10012000B1E0E8E9FDE102C005900D92A43CB10701
:10013000D9F710E0C0E8D0E004C02197FE010E948A
:10014000B80CCF37D107C9F70E9452070C94CA0EDA
:100150000C9400000E94B50EEF92FF920F931F9334
:10016000CF93DF93FC01248135816115710511F472
:1001700080E019C041155105A9F07B01EC018A010D
:10018000020F131FB8010E941303882389F32881EB
:1001900039818C819D81B701820F931F0E94C30E0C
:1001A0001D830C8381E0DF91CF911F910F91FF9010
:1001B000EF900895CF93DF93EC016115710561F025
:1001C000FB0101900020E9F73197AF01461B570B67
:1001D0000E94AC00811103C0CE010E943A03CE01FF
:1001E000DF91CF910895CF93DF93EC01FB01448120
:1001F0005581608171810E94AC00811103C0CE01E4
:100200000E943A03CE01DF91CF910895EF92FF92C1
:100210000F931F93CF93DF93EC017B018A01BA0107
:100220000E941303811104C0CE010E943A0307C04B
:100230001D830C83B701888199810E94C30ECE0172
:10024000DF91CF911F910F91FF90EF900895CF9282
:10025000DF92EF92FF920F931F93CF93DF936C0186
:100260007A018B01C0E0D0E0CE15DF0589F0D8011E
:100270006D918D01D601ED91FC910190F081E02D01
:10028000C6010995892B11F47E0102C02196ECCF9D
:10029000C701DF91CF911F910F91FF90EF90DF90F9
:1002A000CF900895FC01538D448D252F30E0842F8D
:1002B00090E0821B930B541710F0CF96089501978E
:1002C0000895FC01918D828D981761F0828DDF0178
:1002D000A80FB11D5D968C91928D9F5F9F73928F39
:1002E00090E008958FEF9FEF0895FC01918D828D2E
:1002F000981731F0828DE80FF11D858D90E00895FB
:100300008FEF9FEF0895FC01918D228D892F90E052
:10031000805C9F4F821B91098F739927089585E810
:1003200092E00E94830121E0892B09F420E0822FD2
:100330000895FC01848DDF01A80FB11DA35ABF4FA2
:100340002C91848D90E001968F739927848FA689D4
:10035000B7892C93A089B1898C9180648C93938DFB
:10036000848D981306C00288F389E02D80818F7DEB
:1003700080830895EF92FF920F931F93CF93DF93A3
:10038000EC0181E0888F9B8D8C8D981305C0E889E6
:10039000F989808185FD24C0F62E0B8D10E00F5F5A
:1003A0001F4F0F731127E02E8C8DE8120CC00FB673
:1003B00007FCFACFE889F989808185FFF5CFCE0166
:1003C0000E949901F1CF8B8DFE01E80FF11DE35AD8
:1003D000FF4FF0820B8FEA89FB898081806207C022
:1003E000EE89FF896083E889F98980818064808350
:1003F00081E090E0DF91CF911F910F91FF90EF90FE
:100400000895CF93DF93EC01888D8823C9F0EA89A2
:10041000FB89808185FD05C0A889B9898C9186FDFD
:100420000FC00FB607FCF5CF808185FFF2CFA889FA
:10043000B9898C9185FFEDCFCE010E949901E7CF5C
:10044000DF91CF91089580E090E0892B29F00E9400
:100450008F0181110C94000008953FB7F8948091AA
:10046000380290913902A0913A02B0913B0226B530
:10047000A89B05C02F3F19F00196A11DB11D3FBFDC
:10048000BA2FA92F982F8827820F911DA11DB11D6A
:10049000BC01CD0142E0660F771F881F991F4A9566
:1004A000D1F7089585ED8093BC008091BC0084FD58
:1004B000FCCF10926202089540910E02262F30E088
:1004C000240F311D21323105DCF4209162022430E9
:1004D000C9F4FC0180E090E0861758F430910E02D8
:1004E0002191DC01A451BE4FA30FB11D2C930196A5
:1004F000F3CF80910E02680F60930E0280E00895A2
:1005000081E0089582E008950895E0916402809169
:100510006302E81730F4F0E0EB59FD4F808190E082
:1005200008958FEF9FEF0895909164028091630288
:10053000981750F4E92FF0E0EB59FD4F208130E09F
:100540009F5F9093640202C02FEF3FEFC9010895AF
:100550008091630290E020916402821B91090895CA
:10056000CF92DF92EF92FF920F931F93CF93DF937F
:100570007C01262F972F8A018091C701882391F053
:10058000C62FD72F6E01C40ED51ECC15DD0571F018
:100590006991D701ED91FC910190F081E02DC701A7
:1005A0000995F3CF642F822F0E945C02C801DF916E
:1005B000CF911F910F91FF90EF90DF90CF90089512
:1005C000CF93DF931F92CDB7DEB769832091C70128
:1005D0002223D1F02091C401203240F021E030E00C
:1005E000FC013383228380E090E015C08091C50137
:1005F000E82FF0E0E453FE4F998190838F5F809362
:10060000C5018093C40105C061E0CE0101960E943E
:100610005C0281E090E00F90DF91CF910895089502
:1006200080E090E008950F931F93CF93DF93EC0148
:1006300088819981009729F02A813B812617370705
:1006400088F48B016F5F7F4F0E94EB0D009761F084
:10065000998388831B830A832C813D81232B11F48A
:10066000FC01108281E001C080E0DF91CF911F91F9
:100670000F910895CF93DF93EC01888199810097C2
:1006800011F00E94530D198218821D821C821B8258
:100690001A82DF91CF910895FC01808191810C94A1
:1006A000530DEF92FF920F931F93CF93DF93CDB72C
:1006B000DEB729970FB6F894DEBF0FBECDBF8C0111
:1006C000862FF80111821082138212821582148201
:1006D00050E09E012F5F3F4F7901B90190E00E94E9
:1006E0000A0CF70101900020E9F73197AF014E198C
:1006F0005F09B701C8010E94060129960FB6F89458
:10070000DEBF0FBECDBFDF91CF911F910F91FF9044
:10071000EF9008951F920F920FB60F9211242F930E
:100720003F934F935F936F937F938F939F93AF9379
:10073000BF93EF93FF9385E892E00E949901FF91A8
:10074000EF91BF91AF919F918F917F916F915F9149
:100750004F913F912F910F900FBE0F901F901895C2
:100760001F920F920FB60F9211242F938F939F9386
:10077000EF93FF93E0919502F09196028081E091D2
:100780009B02F0919C0282FD12C0908180919E029A
:100790008F5F8F7320919F02821751F0E0919E022C
:1007A000F0E0EB57FD4F958F80939E0201C0808152
:1007B000FF91EF919F918F912F910F900FBE0F900E
:1007C0001F90189590E0FC01E255FF4F3491FC0119
:1007D000E651FF4F2491FC01EA52FF4FE491EE23D2
:1007E00009F43BC0332339F1333091F038F4313020
:1007F000A9F0323001F584B58F7D12C0373091F009
:100800003830A1F03430B9F4809180008F7D03C07E
:10081000809180008F77809380000DC084B58F77A2
:1008200084BD09C08091B0008F7703C08091B00073
:100830008F7D8093B000F0E0EE0FFF1FEE53FF4F6F
:10084000A591B4918FB7F894EC91611103C02095F4
:100850002E2301C02E2B2C938FBF08958F929F9231
:10086000AF92BF92CF92DF92EF92FF926B017C0129
:100870000E942D024B015C01C114D104E104F1047A
:10088000F1F00E942D02DC01CB0188199909AA0917
:10089000BB09883E9340A105B10570F321E0C21A5F
:1008A000D108E108F10888EE880E83E0981EA11CAB
:1008B000B11CC114D104E104F10419F7DDCFFF909C
:1008C000EF90DF90CF90BF90AF909F908F90089562
:1008D0001F920F920FB60F9211242F933F938F9375
:1008E0009F93AF93BF938091340290913502A09172
:1008F0003602B09137023091330223E0230F2D37B7
:1009000020F40196A11DB11D05C026E8230F029613
:10091000A11DB11D209333028093340290933502C0
:10092000A0933602B0933702809138029091390239
:10093000A0913A02B0913B020196A11DB11D809396
:10094000380290933902A0933A02B0933B02BF91D0
:10095000AF919F918F913F912F910F900FBE0F906C
:100960001F901895FC0161819081492F50E02281F0
:1009700030E0E3EAF0E081E08E1B782F7E0F7617FF
:1009800028F47491270F311D3196F7CF633020F092
:10099000937011F42F5F3F4F6DE671E0469FC001E9
:1009A000479F900D569F900D112405964D5F5F4F08
:1009B0005695479556954795840F951F820F931F1F
:1009C00067E070E00E94820C0895FC0190819053D2
:1009D0009A3008F090E0818180532AE0929F800D48
:1009E000112408951F920F920FB60F9211242F9386
:1009F0003F934F935F936F937F938F939F93AF93A7
:100A0000BF93EF93FF938091B900887F803609F4FC
:100A10009CC068F5883209F45BC090F4803109F419
:100A200054C038F4882309F4F6C0883009F44DC066
:100A3000F6C0883109F44CC0803209F45DC0EFC0C3
:100A4000803409F468C048F4803309F455C0883311
:100A500009F0E5C080936002D8C0803509F44FC02A
:100A6000883509F45DC0883409F0D9C0D6C088390A
:100A700009F4C7C0A8F4883709F467C038F4883689
:100A800009F463C0803709F460C0C9C0883809F42C
:100A9000B8C0803909F45FC0803809F0C0C05BC0BD
:100AA000803B09F486C038F4803A09F466C0883A7D
:100AB00009F47FC0B4C0803C09F4A7C0883C09F4A5
:100AC000A4C0883B09F48AC0AAC080915D0210C00E
:100AD00090915F0280915E02981770F5E0915F023D
:100AE00081E08E0F80935F02F0E0E45CFD4F808137
:100AF0008093BB0085EC86C0809360028EC0E0913D
:100B00005F0281E08E0F80935F028091BB00F0E076
:100B1000E45CFD4F808390915F0280915E026EC025
:100B2000E0915F0281E08E0F80935F028091BB00B5
:100B3000F0E0E45CFD4F80838091610281116DC023
:100B400081E080935C0284EA61C083E0809362026A
:100B500010923202CFCF80913202803208F051C021
:100B6000E091320281E08E0F809332028091BB00CF
:100B7000F0E0EE5EFD4F8083BDCF85EC8093BC003E
:100B80001092620280913202803230F4E09132029F
:100B9000F0E0EE5EFD4F10826091320270E0E09175
:100BA0001002F091110282E192E009951092320256
:100BB00036C084E08093620210920F0210920E02FF
:100BC000E0910C02F0910D02099580910E028111C5
:100BD00005C081E080930E021092EC01E0910F02BB
:100BE00081E08E0F80930F02F0E0E451FE4F808190
:100BF0008093BB0090910F0280910E02981708F429
:100C000079CF85E88093BC000AC085EC8093BC0056
:100C10001092620204C0109260020E945202FF9180
:100C2000EF91BF91AF919F918F917F916F915F9164
:100C30004F913F912F910F900FBE0F901F901895DD
:100C40002091C4019091C601213208F04AC08091E0
:100C500062028111FCCF32E03093620231E03093C6
:100C600061023FEF3093600210925F0220935E02B8
:100C7000ACECB1E04CE352E0FA013E2F341B3217EA
:100C800018F43D913193F9CF10925D0220915D02ED
:100C9000990F922B90935D0290915C02913061F4D8
:100CA00010925C0290915D029093BB009091BC0009
:100CB00093FDF8CF95EC01C095EE9093BC00909118
:100CC00062029230E1F3909160029F3F79F080914F
:100CD0006002803241F080916002803331F084E024
:100CE00005C081E003C082E001C083E01092C5012D
:100CF0001092C4011092C701089590E0FC01E651E2
:100D0000FF4F2491FC01EA52FF4F8491882399F010
:100D100090E0880F991FFC01E453FF4FA591B49117
:100D2000FC01EE53FF4F859194918FB7F894EC91AD
:100D3000E22BEC938FBF0895009769F0FC010190BE
:100D40000020E9F73197AF01481B590BBC0185E83A
:100D500092E00C94270180E090E00895CF93DF9318
:100D60000E949C06EC018BEA91E00E949C068C0F8D
:100D70009D1FDF91CF910895809162028111FCCF78
:100D8000862F613208F080E291E0909362029093A6
:100D900061022FEF2093600210925F02280F2093D0
:100DA0005E0290935D0290915D02906D90935D0262
:100DB00090915C02913061F410925C0290915D021E
:100DC0009093BB009091BC0093FDF8CF95EC01C0CF
:100DD00095EE9093BC00909162029130E1F3909176
:100DE0005F02981710F480915F02ACE3B2E025E651
:100DF00032E0F9019E2F921B981718F49D91919360
:100E0000F9CF109264028093630208958F929F92AB
:100E1000AF92BF920F931F93CF93DF93CDB7DEB7FF
:100E2000A1970FB6F894DEBF0FBECDBF19A2423016
:100E300008F44AE08E010F5D1F4F842E912CA12CE7
:100E4000B12CA50194010E94960CE62FB901CA01AC
:100E500001501109EA3014F4E05D01C0E95CD801E9
:100E6000EC93232B242B252B61F7C8010E949C06B1
:100E7000A1960FB6F894DEBF0FBECDBFDF91CF9124
:100E80001F910F91BF90AF909F908F900895E09128
:100E90008502F09186020190F081E02D682F85E8AF
:100EA00092E00994CF93DF93CDB7DEB7C354D10955
:100EB0000FB6F894DEBF0FBECDBF789484B58260C4
:100EC00084BD84B5816084BD85B5826085BD85B5EE
:100ED000816085BD80916E00816080936E0010926C
:100EE00081008091810082608093810080918100E7
:100EF0008160809381008091800081608093800078
:100F00008091B10084608093B1008091B0008160D5
:100F10008093B00080917A00846080937A00809101
:100F20007A00826080937A0080917A008160809359
:100F30007A0080917A00806880937A001092C100D4
:100F4000E0919502F091960282E08083E091910217
:100F5000F09192021082E0919302F09194028FEC52
:100F6000808310929D02E0919902F0919A0286E0AE
:100F70008083E0919702F091980280818061808364
:100F8000E0919702F0919802808188608083E091DF
:100F90009702F0919802808180688083E0919702A7
:100FA000F091980280818F7D80838EE791E00E948E
:100FB000AE0682E293E09093CB018093CA01109237
:100FC0006402109263021092C5011092C401109243
:100FD000620201E00093610210925C0261E082E132
:100FE0000E94E20361E083E10E94E2038091B90084
:100FF0008E7F8093B9008091B9008D7F8093B90076
:1010000088E48093B80085E48093BC000093C70116
:1010100088E68093C6011092C5011092C4018091A8
:10102000CA019091CB010E9420068111ACC30093AC
:10103000C7011092C5011092C4018091CA0190911C
:10104000CB01DC01ED91FC910190F081E02D60E09D
:1010500009958091CA019091CB010E94200661E020
:1010600070E08091CA019091CB010E94BC068091F2
:10107000CA019091CB01DC01ED91FC910284F385D2
:10108000E02D0995FE0131967F0187FF0AC181E9B4
:1010900091E00E94AE064BE050E067E970E0C701C6
:1010A0000E94010CCE010A960E94E504082FE981F6
:1010B0004E2FEE0F550B660B770BFA01E154F10939
:1010C000E331F10538F5EC5CFF4F0C94B80C12E0FD
:1010D00021C08A81813629F08B818E3621F017E07C
:1010E00019C011E017C016E015C08B81823711F0CE
:1010F00018E010C014E00EC08B81823711F015E0AB
:1011000009C013E007C019E005C01AE003C01BE0E6
:1011100001C01CE0CE0105960E94E504B82E48E00F
:1011200050E06EE870E0C7010E94010CC7010E9408
:10113000E504A82ECE0104960E94E504C82ECE0137
:1011400007960E94E504982E81E08093C70188E607
:101150008093C6011092C5011092C4018091CA010A
:101160009091CB01DC01ED91FC910190F081E02D9B
:1011700060E00995A091CA01B091CB01ED91FC917D
:1011800011978AE0D82E892D6D2D0E94760C482F5C
:10119000880F480F440F642F690D0190F081E02DF6
:1011A000CD010995A091CA01B091CB01ED91FC91BF
:1011B00011978C2D6D2D0E94760C382F880F380FCB
:1011C000330F632F6C0D0190F081E02DCD01099557
:1011D000A091CA01B091CB01ED91FC9111978A2D9C
:1011E0006D2D0E94760C282F880F280F220F622F5A
:1011F0006A0D0190F081E02DCD0109958091CA0121
:101200009091CB01DC01ED91FC910190F081E02DFA
:1012100060E00995A091CA01B091CB01ED91FC91DC
:1012200011978B2D6D2D0E94760C982F880F980F9B
:10123000990F692F6B0D0190F081E02DCD0109957B
:10124000A091CA01B091CB01ED91FC911197812F32
:101250006D2D0E94760C982F880F980F990F692F8B
:10126000610F0190F081E02DCD010995A091CA0197
:10127000B091CB01ED91FC911197802F6D2D0E94C3
:10128000760C682F880F680F660F600F0190F08151
:10129000E02DCD0109958091CA019091CB010E946A
:1012A000200661E08AE00E94E2031FB7F894809173
:1012B000C801811124C0E0EEF0E08491E4EFF0E099
:1012C0009491E82FF0E0EE0FFF1FE453FF4FA5913C
:1012D000B491EC91E92321F461E08AE00E94E203F9
:1012E0008AE00E947D068CB580618CBD8CB58064DF
:1012F0008CBD8DE00E947D068BE00E947D06809172
:10130000C8018F5F8093C8011FBF8CB58C7F81603F
:101310008CBD8DB581608DBDDD24D3948E010A5CBA
:101320001F4FD092C70188E68093C6011092C50175
:101330001092C4018091CA019091CB01DC01ED9122
:10134000FC910190F081E02D60E009958091CA0147
:101350009091CB010E94200667E070E08091CA0165
:101360009091CB010E94BC068091CA019091CB0163
:10137000DC01ED91FC910284F385E02D09958F77D6
:10138000982F92959F702AEFB22EC82E9B9DC00C6D
:1013900011248091CA019091CB01DC01ED91FC9167
:1013A0000284F385E02D09959C01332744E03595AF
:1013B00027954A95E1F7A82EB29EA00C11248091A2
:1013C000CA019091CB01DC01ED91FC910284F3857F
:1013D000E02D09959C01332754E0359527955A95C2
:1013E000E1F7982EB29E900C11248091CA01909141
:1013F000CB01DC01ED91FC910284F385E02D099590
:101400008091CA019091CB01DC01ED91FC910284A5
:10141000F385E02D09959C01332764E035952795E8
:101420006A95E1F7882EB29E800C11248091CA0142
:101430009091CB01DC01ED91FC910284F385E02DCC
:1014400009959C01332774E0359527957A95E1F746
:10145000782EB29E700C11248091CA019091CB011C
:10146000DC01ED91FC910284F385E02D09959C014E
:101470003327E4E035952795EA95E1F7682FB29E8A
:10148000600D11246CAF7DAE8EAE9FAE2196AFAED7
:1014900021972296CFAE229770E06053784F80E07C
:1014A00090E04AE00E9406078FE20E9447076DAD78
:1014B00070E080E090E04AE00E9406078FE20E9420
:1014C00047076EAD70E080E090E04AE00E940607BA
:1014D00085EA91E00E949C06CE01CC960E94B2045F
:1014E000FCE0AF2EA89EC001112480509F4F0E94A7
:1014F0009C0688EA91E00E949C066FAD70E080E057
:1015000090E04AE00E9406078AE30E94470721967E
:101510006FAD219770E080E090E04AE00E940607FE
:101520008AE30E94470722966FAD229770E080E021
:1015300090E04AE00E9406078BEA91E00E949C0638
:1015400068EE73E080E090E00E942E0460E08AE0A4
:101550000E94E2031FAA1EAA19AE18AE1BAE1AAE55
:1015600040E050E06DEA71E0C8010E9406014AE0E7
:1015700022966FAD2297CE0142960E9451034AE017
:1015800021966FAD2197CE0148960E9451034AE003
:101590006FADCE014E960E945103CE01CC960E94B3
:1015A000B204A89EC0011124FC01E050FF4F5F016E
:1015B0004AE06EADCE0184960E9451034AE06DADC3
:1015C000CE018A960E9451038CAD90E019AA18AA08
:1015D0001BAA1AAA1DAA1CAA4AE0B7018053984F59
:1015E0000E94150CF70101900020E9F73197AF0137
:1015F0004E195F09B701CE01C0960E9406011A82FA
:1016000019821C821B821E821D8268A979A961151C
:10161000710531F04CA95DA9C7010E94060103C004
:10162000C7010E943A036EEA71E0C7010E94DA0026
:10163000BE01665D7F4F0E94F3006EEA71E00E947A
:10164000DA00BE016C5D7F4F0E94F30065EA71E035
:101650000E94DA00B5010E94DA0068EA71E00E9497
:10166000DA00BE01625E7F4F0E94F30060EB71E022
:101670000E94DA00BE01685E7F4F0E94F30060EBBB
:1016800071E00E94DA00BE016E5E7F4F0E94F3009F
:101690005C018FE423968FAF239724961FAE249787
:1016A00041E050E0BE016E5B7F4FC5010E94AC007F
:1016B000811103C0C5010E943A03A016B10691F042
:1016C000D5016D917C9111976115710541F01496CA
:1016D0004D915C911597C8010E94060103C0C80195
:1016E0000E943A03C7010E944C03CE01C0960E949B
:1016F0004C03CE018A960E944C03CE0184960E9430
:101700004C03CE014E960E944C03CE0148960E9497
:101710004C03CE0142960E944C03A12CB12C8AAD01
:101720009BAD8A159B05F8F0A816B90620F4EEA922
:10173000FFA9309729F41092C901E9ECF1E002C049
:10174000EA0DFB1D80818EBD00000DB407FEFDCFAC
:101750008EB564E670E080E090E00E942E04BFEF5A
:10176000AB1ABB0ADCCF61E08AE00E94E20368EBBF
:101770007BE080E090E00E942E04C8010E944C03B0
:101780000E942302CECD82EB91E00E94AE06FFCFF5
:10179000E5E8F2E01382128288EE93E0A0E0B0E088
:1017A00084839583A683B7832EE531E0318320833C
:1017B00025EC30E03587248724EC30E03787268716
:1017C00020EC30E0318B208B21EC30E0338B228B0E
:1017D00022EC30E0358B248B26EC30E0378B268BE7
:1017E000118E128E138E148EE2E2F3E013821282B7
:1017F00084839583A683B78380E791E09183808378
:101800000895FB01DC0102C005900D92415050404B
:10181000D8F708954532510520F4423010F00C9469
:10182000150CFB011082CB010895BB27FB01552746
:10183000AA27880F991FAA1FA41710F0A41B83952D
:101840005051B9F7A05DAA3308F0A95DA1930097A4
:1018500079F7B111B1931192CB010C942F0CDC01EB
:10186000FC01672F71917723E1F7329704C07C91D7
:101870006D9370836291AE17BF07C8F308952F92DE
:101880003F924F925F926F927F928F929F92AF9210
:10189000BF92CF92DF92EF92FF920F931F93CF935D
:1018A000DF93CDB7DEB7CA1BDB0B0FB6F894DEBFF4
:1018B0000FBECDBF09942A88398848885F846E841A
:1018C0007D848C849B84AA84B984C884DF80EE8064
:1018D000FD800C811B81AA81B981CE0FD11D0FB66D
:1018E000F894DEBF0FBECDBFED010895991B79E0DE
:1018F00004C0991F961708F0961B881F7A95C9F7A0
:1019000080950895AA1BBB1B51E107C0AA1FBB1FEE
:10191000A617B70710F0A61BB70B881F991F5A957B
:10192000A9F780959095BC01CD010895A1E21A2EEA
:10193000AA1BBB1BFD010DC0AA1FBB1FEE1FFF1F73
:10194000A217B307E407F50720F0A21BB30BE40BC3
:10195000F50B661F771F881F991F1A9469F760950A
:101960007095809590959B01AC01BD01CF010895C4
:10197000EE0FFF1F0590F491E02D0994CF93DF93B4
:101980008230910510F482E090E0E0913003F09114
:10199000310320E030E0C0E0D0E0309711F1408129
:1019A000518148175907C0F04817590761F48281DF
:1019B0009381209719F09B838A832BC090933103E6
:1019C0008093300326C02115310519F042175307C3
:1019D00018F49A01BE01DF01EF010280F381E02DCE
:1019E000DCCF2115310509F1281B390B24303105D5
:1019F00090F412968D919C9113976115710521F0C9
:101A0000FB019383828304C090933103809330035E
:101A1000FD01329644C0FD01E20FF31F81939193C3
:101A2000225031092D933C933AC020912E033091DE
:101A30002F03232B41F4209156013091570130930D
:101A40002F0320932E03209154013091550121152D
:101A5000310541F42DB73EB74091580150915901DD
:101A6000241B350BE0912E03F0912F03E217F307AF
:101A7000A0F42E1B3F0B2817390778F0AC014E5FFE
:101A80005F4F2417350748F04E0F5F1F50932F0309
:101A900040932E038193919302C0E0E0F0E0CF01E8
:101AA000DF91CF9108950F931F93CF93DF9300970A
:101AB00009F48CC0FC01329713821282009130032A
:101AC000109131030115110581F420813181820FBC
:101AD000931F20912E0330912F032817390779F592
:101AE000F0932F03E0932E0371C0D80140E050E043
:101AF000AE17BF0750F412962D913C911397AD018C
:101B00002115310509F1D901F3CF9D01DA013383A4
:101B1000228360817181860F971F8217930769F472
:101B2000EC0128813981260F371F2E5F3F4F31830B
:101B300020838A819B8193838283452B29F4F093B0
:101B40003103E093300342C01396FC93EE93129757
:101B5000ED01499159919E01240F351FE217F307BA
:101B600071F480819181840F951F029611969C9348
:101B70008E938281938113969C938E931297E0E0CB
:101B8000F0E0D80112968D919C911397009719F06F
:101B9000F8018C01F6CF8D919C9198012E5F3F4FFB
:101BA000820F931F20912E0330912F03281739079E
:101BB00069F4309729F4109231031092300302C077
:101BC0001382128210932F0300932E03DF91CF9183
:101BD0001F910F910895A0E0B0E0E1EFFDE00C94BB
:101BE000430CEC01009721F4CB010E94BE0CB8C05D
:101BF000FC01E60FF71F9C0122503109E217F307A1
:101C000008F4ACC0D9010D911C9111970617170764
:101C1000B0F00530110508F49FC0C801049786177D
:101C2000970708F499C002501109061B170B01937E
:101C300011936D937C93CF010E94530D8DC05B0176
:101C4000A01AB10A4C01800E911EA0913003B091F0
:101C5000310340E050E0E12CF12C109709F44AC028
:101C6000A815B905D1F56D907C901197630182E0BC
:101C7000C80ED11CCA14DB0480F1A3014A195B0908
:101C80006A0182E0C80ED11C1296BC90129713967E
:101C9000AC91B5E0CB16D10440F0B282A38351835E
:101CA0004083D9016D937C930AC00E5F1F4FC3011F
:101CB000800F911FF90191838083EB2DFA2FE1149E
:101CC000F10431F0D7011396FC93EE93129744C0C0
:101CD000F0933103E09330033FC08D919C911197B5
:101CE0004817590708F4AC017D0112960D90BC917C
:101CF000A02DB3CF80912E0390912F0388159905C5
:101D0000E1F446175707C8F48091540190915501AA
:101D1000009741F48DB79EB74091580150915901F9
:101D2000841B950BE817F907C8F4F0932F03E09391
:101D30002E03F901718360830FC0CB010E94BE0C9A
:101D40007C01009759F0A801BE010E94BA0ECE0195
:101D50000E94530DC70104C0CE0102C080E090E094
:101D6000CDB7DEB7EEE00C945F0C81E090E0F89424
:101D70000C94CA0EFB01DC0102C001900D9241508F
:101D80005040D8F70895FB01DC0101900D9200202E
:081D9000E1F70895F894FFCF7C
:101D980053756E6461790000000000004D6F6E6439
:101DA8006179000000000000547565736461790072
:101DB800000000005765646E657364617900000077
:101DC8005468757273646179000000004672696432
:101DD80061790000000000005361747572646179D4
:101DE8000000000000003203800000000000BA017B
:101DF8002701520101028301610175010000000001
:101E0800E002B00210038402A8029402850254681A
:101E1800697320697320746865204D6173746572F5
:101E280000525443206973204E4F542072756E6ED1
:101E3800696E672100203C003E20000D0A002F003B
:101E48003A00436F756C646E27742066696E64206F
:041E5800525443009D
:00000001FF
