:100000000C9453000C947B000C947B000C947B00AC
:100010000C947B000C947B000C947B000C947B0074
:100020000C947B000C947B000C947B000C947B0064
:100030000C947B000C947B000C947B000C947B0054
:100040000C9489010C942B020C94F9010C94D301AB
:100050000C947B000C947B000C947B000C947B0034
:100060000C947B000C947B0000000000250028000D
:100070002B0000000000240027002A0004040404D0
:100080000404040402020202020203030303030342
:10009000010204081020408001020408102001021F
:1000A000040810203D0211241FBECFEFD8E0DEBFB0
:1000B000CDBF11E0A0E0B1E0ECE8F6E002C00590B1
:1000C0000D92A832B107D9F721E0A8E2B1E001C052
:1000D0001D92A03DB207E1F710E0C3E5D0E004C0F7
:1000E0002197FE010E943903C235D107C9F70E944A
:1000F0006E020C9444030C940000CF92DF92EF92B6
:10010000FF920F931F93CF93DF936C017A018B01C2
:10011000C0E0D0E0CE15DF0589F0D8016D918D01EA
:10012000D601ED91FC910190F081E02DC601099579
:10013000892B11F47E0102C02196ECCFC701DF911B
:10014000CF911F910F91FF90EF90DF90CF90089586
:10015000089580E090E00895FC01538D448D252F93
:1001600030E0842F90E0821B930B541710F0CF9651
:10017000089501970895FC01918D828D981761F083
:10018000828DDF01A80FB11D5D968C91928D9F5FCE
:100190009F73928F90E008958FEF9FEF0895FC0179
:1001A000918D828D981731F0828DE80FF11D858D2C
:1001B00090E008958FEF9FEF0895FC01918D228DBF
:1001C000892F90E0805C9F4F821B91098F73992744
:1001D000089582E391E00E94DD0021E0892B09F47B
:1001E00020E0822F0895FC01848DDF01A80FB11D4E
:1001F000A35ABF4F2C91848D90E001968F7399275D
:10020000848FA689B7892C93A089B1898C91806449
:100210008C93938D848D981306C00288F389E02D0A
:1002200080818F7D80830895EF92FF920F931F93BB
:10023000CF93DF93EC0181E0888F9B8D8C8D981399
:1002400005C0E889F989808185FD24C0F62E0B8DD3
:1002500010E00F5F1F4F0F731127E02E8C8DE812F7
:100260000CC00FB607FCFACFE889F989808185FFB9
:10027000F5CFCE010E94F300F1CF8B8DFE01E80F88
:10028000F11DE35AFF4FF0820B8FEA89FB898081D1
:10029000806207C0EE89FF896083E889F9898081DF
:1002A0008064808381E090E0DF91CF911F910F9176
:1002B000FF90EF900895CF93DF93EC01888D882312
:1002C000C9F0EA89FB89808185FD05C0A889B989C3
:1002D0008C9186FD0FC00FB607FCF5CF808185FF9E
:1002E000F2CFA889B9898C9185FFEDCFCE010E940C
:1002F000F300E7CFDF91CF91089580E090E0892B64
:1003000029F00E94E90081110C94000008950E94D8
:100310003F031F920F920FB60F9211242F933F931A
:100320008F939F93AF93BF9380912E0190912F0154
:10033000A0913001B091310130912D0123E0230FC4
:100340002D3720F40196A11DB11D05C026E8230F0D
:100350000296A11DB11D20932D0180932E01909333
:100360002F01A0933001B093310180912901909128
:100370002A01A0912B01B0912C010196A11DB11D64
:100380008093290190932A01A0932B01B0932C0113
:10039000BF91AF919F918F913F912F910F900FBE81
:1003A0000F901F9018951F920F920FB60F92112465
:1003B0002F933F934F935F936F937F938F939F936D
:1003C000AF93BF93EF93FF9382E391E00E94F3001A
:1003D000FF91EF91BF91AF919F918F917F916F911D
:1003E0005F914F913F912F910F900FBE0F901F90F3
:1003F00018951F920F920FB60F9211242F938F937F
:100400009F93EF93FF93E0914201F091430180812C
:10041000E0914801F091490182FD12C090818091E4
:100420004B018F5F8F7320914C01821751F0E09147
:100430004B01F0E0EE5CFE4F958F80934B0101C0C5
:100440008081FF91EF919F918F912F910F900FBE1F
:100450000F901F9018951F920F920FB60F921124B4
:100460008F938EB58093CF0181E0809328018F9187
:100470000F900FBE0F901F901895E2E3F1E01382EA
:10048000128288EE93E0A0E0B0E084839583A68397
:10049000B78384E091E09183808385EC90E0958739
:1004A000848784EC90E09787868780EC90E0918B3E
:1004B000808B81EC90E0938B828B82EC90E0958B2B
:1004C000848B86EC90E0978B868B118E128E138E28
:1004D000148E86E291E08093CF010895789484B5DC
:1004E000826084BD84B5816084BD85B5826085BD30
:1004F00085B5816085BD80916E00816080936E00BE
:1005000010928100809181008260809381008091AF
:100510008100816080938100809180008160809360
:1005200080008091B10084608093B1008091B00020
:1005300081608093B00080917A00846080937A001B
:1005400080917A00826080937A0080917A00816045
:1005500080937A0080917A00806880937A0010926C
:10056000C100E0914201F091430182E08083E0917B
:100570003E01F0913F011082E0914001F091410174
:100580008FEC808310924A01E0914601F09147017F
:1005900086E08083E0914401F09145018081806193
:1005A0008083E0914401F0914501808188608083DF
:1005B000E0914401F0914501808180688083E09161
:1005C0004401F091450180818F7D808341E150E0BD
:1005D00062E171E082E391E00E947D0042E050E040
:1005E00064E271E082E391E00E947D00ECE9F0E0DA
:1005F0002491E8E8F0E08491882399F090E0880F56
:10060000991FFC01EE58FF4FA591B491FC01E859E8
:10061000FF4F859194918FB7F894EC91E22BEC9376
:100620008FBF8CB580648CBD109228018CB580681A
:100630008CBD809128018823C9F06091CF016F346F
:1006400059F0E0913201F09133010190F081E02DF9
:1006500082E391E0099508C042E050E064E271E075
:1006600082E391E00E947D00109228010E947D01AA
:10067000E0CFEE0FFF1F0590F491E02D099481E08B
:0C06800090E0F8940C944403F894FFCF31
:10068C000000000014017D00AC005B01DD00BB002C
:10069C00CF00746869732069732074686520736C6B
:0806AC00617665000D0A0000F3
:00000001FF
